{
  "contractName": "AdminApp",
  "abi": [
    {
      "inputs": [],
      "stateMutability": "nonpayable",
      "type": "constructor"
    },
    {
      "inputs": [
        {
          "internalType": "string",
          "name": "_username",
          "type": "string"
        },
        {
          "internalType": "string",
          "name": "_customerData",
          "type": "string"
        }
      ],
      "name": "addCustomer",
      "outputs": [
        {
          "internalType": "bool",
          "name": "success",
          "type": "bool"
        }
      ],
      "stateMutability": "nonpayable",
      "type": "function"
    },
    {
      "inputs": [
        {
          "internalType": "string",
          "name": "_username",
          "type": "string"
        },
        {
          "internalType": "string",
          "name": "_customerData",
          "type": "string"
        }
      ],
      "name": "addRequest",
      "outputs": [
        {
          "internalType": "bool",
          "name": "success",
          "type": "bool"
        }
      ],
      "stateMutability": "nonpayable",
      "type": "function"
    },
    {
      "inputs": [],
      "name": "admin",
      "outputs": [
        {
          "internalType": "address",
          "name": "",
          "type": "address"
        }
      ],
      "stateMutability": "view",
      "type": "function",
      "constant": true
    },
    {
      "inputs": [
        {
          "internalType": "address",
          "name": "",
          "type": "address"
        }
      ],
      "name": "banks",
      "outputs": [
        {
          "internalType": "string",
          "name": "name",
          "type": "string"
        },
        {
          "internalType": "address",
          "name": "ethAddress",
          "type": "address"
        },
        {
          "internalType": "uint256",
          "name": "complaintsReported",
          "type": "uint256"
        },
        {
          "internalType": "uint256",
          "name": "KYC_count",
          "type": "uint256"
        },
        {
          "internalType": "bool",
          "name": "isAllowedToVote",
          "type": "bool"
        },
        {
          "internalType": "string",
          "name": "regNumber",
          "type": "string"
        }
      ],
      "stateMutability": "view",
      "type": "function",
      "constant": true
    },
    {
      "inputs": [
        {
          "internalType": "string",
          "name": "",
          "type": "string"
        }
      ],
      "name": "customers",
      "outputs": [
        {
          "internalType": "string",
          "name": "username",
          "type": "string"
        },
        {
          "internalType": "string",
          "name": "customerData",
          "type": "string"
        },
        {
          "internalType": "bool",
          "name": "kycStatus",
          "type": "bool"
        },
        {
          "internalType": "uint256",
          "name": "upvotes",
          "type": "uint256"
        },
        {
          "internalType": "uint256",
          "name": "downvotes",
          "type": "uint256"
        },
        {
          "internalType": "address",
          "name": "bank",
          "type": "address"
        }
      ],
      "stateMutability": "view",
      "type": "function",
      "constant": true
    },
    {
      "inputs": [
        {
          "internalType": "string",
          "name": "_username",
          "type": "string"
        }
      ],
      "name": "downvote",
      "outputs": [
        {
          "internalType": "bool",
          "name": "success",
          "type": "bool"
        }
      ],
      "stateMutability": "nonpayable",
      "type": "function"
    },
    {
      "inputs": [
        {
          "internalType": "address",
          "name": "_ethAddress",
          "type": "address"
        }
      ],
      "name": "getBankComplaints",
      "outputs": [
        {
          "internalType": "uint256",
          "name": "",
          "type": "uint256"
        }
      ],
      "stateMutability": "view",
      "type": "function",
      "constant": true
    },
    {
      "inputs": [
        {
          "internalType": "string",
          "name": "_username",
          "type": "string"
        }
      ],
      "name": "modifyCustomer",
      "outputs": [
        {
          "internalType": "bool",
          "name": "success",
          "type": "bool"
        }
      ],
      "stateMutability": "nonpayable",
      "type": "function"
    },
    {
      "inputs": [],
      "name": "numOfBanks",
      "outputs": [
        {
          "internalType": "uint256",
          "name": "",
          "type": "uint256"
        }
      ],
      "stateMutability": "view",
      "type": "function",
      "constant": true
    },
    {
      "inputs": [
        {
          "internalType": "string",
          "name": "_username",
          "type": "string"
        }
      ],
      "name": "removeRequest",
      "outputs": [
        {
          "internalType": "bool",
          "name": "success",
          "type": "bool"
        }
      ],
      "stateMutability": "nonpayable",
      "type": "function"
    },
    {
      "inputs": [
        {
          "internalType": "address",
          "name": "_ethAddress",
          "type": "address"
        },
        {
          "internalType": "string",
          "name": "_name",
          "type": "string"
        }
      ],
      "name": "reportBank",
      "outputs": [
        {
          "internalType": "bool",
          "name": "success",
          "type": "bool"
        }
      ],
      "stateMutability": "nonpayable",
      "type": "function"
    },
    {
      "inputs": [
        {
          "internalType": "string",
          "name": "",
          "type": "string"
        }
      ],
      "name": "requests",
      "outputs": [
        {
          "internalType": "string",
          "name": "username",
          "type": "string"
        },
        {
          "internalType": "string",
          "name": "customerData",
          "type": "string"
        },
        {
          "internalType": "address",
          "name": "bank",
          "type": "address"
        }
      ],
      "stateMutability": "view",
      "type": "function",
      "constant": true
    },
    {
      "inputs": [
        {
          "internalType": "string",
          "name": "_username",
          "type": "string"
        }
      ],
      "name": "upvote",
      "outputs": [
        {
          "internalType": "bool",
          "name": "success",
          "type": "bool"
        }
      ],
      "stateMutability": "nonpayable",
      "type": "function"
    },
    {
      "inputs": [
        {
          "internalType": "address",
          "name": "_ethAddress",
          "type": "address"
        }
      ],
      "name": "viewBankDetails",
      "outputs": [
        {
          "components": [
            {
              "internalType": "string",
              "name": "name",
              "type": "string"
            },
            {
              "internalType": "address",
              "name": "ethAddress",
              "type": "address"
            },
            {
              "internalType": "uint256",
              "name": "complaintsReported",
              "type": "uint256"
            },
            {
              "internalType": "uint256",
              "name": "KYC_count",
              "type": "uint256"
            },
            {
              "internalType": "bool",
              "name": "isAllowedToVote",
              "type": "bool"
            },
            {
              "internalType": "string",
              "name": "regNumber",
              "type": "string"
            }
          ],
          "internalType": "struct BankApp.Bank",
          "name": "",
          "type": "tuple"
        }
      ],
      "stateMutability": "view",
      "type": "function",
      "constant": true
    },
    {
      "inputs": [
        {
          "internalType": "string",
          "name": "_username",
          "type": "string"
        }
      ],
      "name": "viewCustomer",
      "outputs": [
        {
          "internalType": "string",
          "name": "",
          "type": "string"
        },
        {
          "internalType": "string",
          "name": "",
          "type": "string"
        },
        {
          "internalType": "bool",
          "name": "",
          "type": "bool"
        },
        {
          "internalType": "uint256",
          "name": "",
          "type": "uint256"
        },
        {
          "internalType": "uint256",
          "name": "",
          "type": "uint256"
        },
        {
          "internalType": "address",
          "name": "",
          "type": "address"
        }
      ],
      "stateMutability": "view",
      "type": "function",
      "constant": true
    },
    {
      "inputs": [
        {
          "internalType": "string",
          "name": "_name",
          "type": "string"
        },
        {
          "internalType": "address",
          "name": "_ethAddress",
          "type": "address"
        },
        {
          "internalType": "string",
          "name": "_regNumber",
          "type": "string"
        }
      ],
      "name": "addBank",
      "outputs": [
        {
          "internalType": "bool",
          "name": "success",
          "type": "bool"
        }
      ],
      "stateMutability": "nonpayable",
      "type": "function"
    },
    {
      "inputs": [
        {
          "internalType": "address",
          "name": "_ethAddress",
          "type": "address"
        },
        {
          "internalType": "bool",
          "name": "_isAllowedToVote",
          "type": "bool"
        }
      ],
      "name": "modifyBankIsAllowedToVote",
      "outputs": [
        {
          "internalType": "bool",
          "name": "success",
          "type": "bool"
        }
      ],
      "stateMutability": "nonpayable",
      "type": "function"
    },
    {
      "inputs": [
        {
          "internalType": "address",
          "name": "_ethAddress",
          "type": "address"
        }
      ],
      "name": "removeBank",
      "outputs": [
        {
          "internalType": "bool",
          "name": "success",
          "type": "bool"
        }
      ],
      "stateMutability": "nonpayable",
      "type": "function"
    }
  ],
  "bytecode": "0x608060405234801561001057600080fd5b5033600460006101000a81548173ffffffffffffffffffffffffffffffffffffffff021916908373ffffffffffffffffffffffffffffffffffffffff160217905550613c76806100616000396000f3fe608060405234801561001057600080fd5b50600436106101165760003560e01c806380c3b8c2116100a2578063a82c98d011610071578063a82c98d014610385578063b2385204146103ba578063b9da4af8146103ea578063ccfa8e711461041a578063f851a4401461044a57610116565b806380c3b8c2146102c05780638374d7d5146102f557806388cc8d8d146103255780639649650c1461035557610116565b8063692d51d2116100e9578063692d51d2146101e05780636cba00e6146102125780637b145050146102425780637c5f5ffd146102605780637d0c1d091461029057610116565b8063107925bb1461011b5780633190abc0146101505780635ec2a7f21461018057806360bde833146101b0575b600080fd5b61013560048036038101906101309190612c4d565b610468565b60405161014796959493929190612d93565b60405180910390f35b61016a60048036038101906101659190612e02565b6107d6565b6040516101779190612e7a565b60405180910390f35b61019a60048036038101906101959190612ec1565b610b9f565b6040516101a79190612eee565b60405180910390f35b6101ca60048036038101906101c59190612c4d565b610cbb565b6040516101d79190612e7a565b60405180910390f35b6101fa60048036038101906101f59190612c4d565b610f3c565b60405161020993929190612f09565b60405180910390f35b61022c60048036038101906102279190612c4d565b6110ac565b6040516102399190612e7a565b60405180910390f35b61024a611260565b6040516102579190612eee565b60405180910390f35b61027a60048036038101906102759190612f7a565b611266565b6040516102879190612e7a565b60405180910390f35b6102aa60048036038101906102a59190612c4d565b61142f565b6040516102b79190612e7a565b60405180910390f35b6102da60048036038101906102d59190612ec1565b6116e1565b6040516102ec96959493929190612fba565b60405180910390f35b61030f600480360381019061030a9190612c4d565b61185a565b60405161031c9190612e7a565b60405180910390f35b61033f600480360381019061033a9190612ec1565b611adb565b60405161034c9190613130565b60405180910390f35b61036f600480360381019061036a9190612ec1565b611dae565b60405161037c9190612e7a565b60405180910390f35b61039f600480360381019061039a9190612c4d565b611fc9565b6040516103b196959493929190612d93565b60405180910390f35b6103d460048036038101906103cf9190613152565b612158565b6040516103e19190612e7a565b60405180910390f35b61040460048036038101906103ff9190612e02565b6123d4565b6040516104119190612e7a565b60405180910390f35b610434600480360381019061042f91906131ae565b61268f565b6040516104419190612e7a565b60405180910390f35b610452612a22565b60405161045f9190613239565b60405180910390f35b60608060008060008033600360008273ffffffffffffffffffffffffffffffffffffffff1673ffffffffffffffffffffffffffffffffffffffff16815260200190815260200160002060040160009054906101000a900460ff16610501576040517f08c379a00000000000000000000000000000000000000000000000000000000081526004016104f8906132c6565b60405180910390fd5b600073ffffffffffffffffffffffffffffffffffffffff166001896040516105299190613322565b908152602001604051809103902060050160009054906101000a900473ffffffffffffffffffffffffffffffffffffffff1673ffffffffffffffffffffffffffffffffffffffff16036105b1576040517f08c379a00000000000000000000000000000000000000000000000000000000081526004016105a890613385565b60405180910390fd5b6001886040516105c19190613322565b90815260200160405180910390206000016001896040516105e29190613322565b908152602001604051809103902060010160018a6040516106039190613322565b908152602001604051809103902060020160009054906101000a900460ff1660018b6040516106329190613322565b90815260200160405180910390206003015460018c6040516106549190613322565b90815260200160405180910390206004015460018d6040516106769190613322565b908152602001604051809103902060050160009054906101000a900473ffffffffffffffffffffffffffffffffffffffff168580546106b4906133d4565b80601f01602080910402602001604051908101604052809291908181526020018280546106e0906133d4565b801561072d5780601f106107025761010080835404028352916020019161072d565b820191906000526020600020905b81548152906001019060200180831161071057829003601f168201915b50505050509550848054610740906133d4565b80601f016020809104026020016040519081016040528092919081815260200182805461076c906133d4565b80156107b95780601f1061078e576101008083540402835291602001916107b9565b820191906000526020600020905b81548152906001019060200180831161079c57829003601f168201915b505050505094509650965096509650965096505091939550919395565b600033600360008273ffffffffffffffffffffffffffffffffffffffff1673ffffffffffffffffffffffffffffffffffffffff16815260200190815260200160002060040160009054906101000a900460ff16610868576040517f08c379a000000000000000000000000000000000000000000000000000000000815260040161085f906132c6565b60405180910390fd5b600073ffffffffffffffffffffffffffffffffffffffff166001856040516108909190613322565b908152602001604051809103902060050160009054906101000a900473ffffffffffffffffffffffffffffffffffffffff1673ffffffffffffffffffffffffffffffffffffffff1614610918576040517f08c379a000000000000000000000000000000000000000000000000000000000815260040161090f90613477565b60405180910390fd5b600073ffffffffffffffffffffffffffffffffffffffff166002856040516109409190613322565b908152602001604051809103902060020160009054906101000a900473ffffffffffffffffffffffffffffffffffffffff1673ffffffffffffffffffffffffffffffffffffffff16036109c8576040517f08c379a00000000000000000000000000000000000000000000000000000000081526004016109bf9061352f565b60405180910390fd5b3373ffffffffffffffffffffffffffffffffffffffff166002856040516109ef9190613322565b908152602001604051809103902060020160009054906101000a900473ffffffffffffffffffffffffffffffffffffffff1673ffffffffffffffffffffffffffffffffffffffff1614610a77576040517f08c379a0000000000000000000000000000000000000000000000000000000008152600401610a6e906135e7565b60405180910390fd5b83600185604051610a889190613322565b90815260200160405180910390206000019081610aa591906137b3565b5082600185604051610ab79190613322565b90815260200160405180910390206001019081610ad491906137b3565b5033600185604051610ae69190613322565b908152602001604051809103902060050160006101000a81548173ffffffffffffffffffffffffffffffffffffffff021916908373ffffffffffffffffffffffffffffffffffffffff16021790555060018085604051610b469190613322565b90815260200160405180910390206003018190555060018085604051610b6c9190613322565b908152602001604051809103902060020160006101000a81548160ff021916908315150217905550600191505092915050565b60008073ffffffffffffffffffffffffffffffffffffffff16600360008473ffffffffffffffffffffffffffffffffffffffff1673ffffffffffffffffffffffffffffffffffffffff16815260200190815260200160002060010160009054906101000a900473ffffffffffffffffffffffffffffffffffffffff1673ffffffffffffffffffffffffffffffffffffffff1603610c71576040517f08c379a0000000000000000000000000000000000000000000000000000000008152600401610c68906138d1565b60405180910390fd5b600360008373ffffffffffffffffffffffffffffffffffffffff1673ffffffffffffffffffffffffffffffffffffffff168152602001908152602001600020600201549050919050565b600033600360008273ffffffffffffffffffffffffffffffffffffffff1673ffffffffffffffffffffffffffffffffffffffff16815260200190815260200160002060040160009054906101000a900460ff16610d4d576040517f08c379a0000000000000000000000000000000000000000000000000000000008152600401610d44906132c6565b60405180910390fd5b600073ffffffffffffffffffffffffffffffffffffffff16600184604051610d759190613322565b908152602001604051809103902060050160009054906101000a900473ffffffffffffffffffffffffffffffffffffffff1673ffffffffffffffffffffffffffffffffffffffff1603610dfd576040517f08c379a0000000000000000000000000000000000000000000000000000000008152600401610df490613385565b60405180910390fd5b60018084604051610e0e9190613322565b90815260200160405180910390206003016000828254610e2e9190613920565b92505081905550600183604051610e459190613322565b908152602001604051809103902060040154600184604051610e679190613322565b908152602001604051809103902060030154118015610eb457506003600054610e9091906139a5565b600184604051610ea09190613322565b908152602001604051809103902060040154105b15610ef75760018084604051610eca9190613322565b908152602001604051809103902060020160006101000a81548160ff021916908315150217905550610f32565b6000600184604051610f099190613322565b908152602001604051809103902060020160006101000a81548160ff0219169083151502179055505b6001915050919050565b600281805160208101820180518482526020830160208501208183528095505050505050600091509050806000018054610f75906133d4565b80601f0160208091040260200160405190810160405280929190818152602001828054610fa1906133d4565b8015610fee5780601f10610fc357610100808354040283529160200191610fee565b820191906000526020600020905b815481529060010190602001808311610fd157829003601f168201915b505050505090806001018054611003906133d4565b80601f016020809104026020016040519081016040528092919081815260200182805461102f906133d4565b801561107c5780601f106110515761010080835404028352916020019161107c565b820191906000526020600020905b81548152906001019060200180831161105f57829003601f168201915b5050505050908060020160009054906101000a900473ffffffffffffffffffffffffffffffffffffffff16905083565b600033600360008273ffffffffffffffffffffffffffffffffffffffff1673ffffffffffffffffffffffffffffffffffffffff16815260200190815260200160002060040160009054906101000a900460ff1661113e576040517f08c379a0000000000000000000000000000000000000000000000000000000008152600401611135906132c6565b60405180910390fd5b600073ffffffffffffffffffffffffffffffffffffffff166002846040516111669190613322565b908152602001604051809103902060020160009054906101000a900473ffffffffffffffffffffffffffffffffffffffff1673ffffffffffffffffffffffffffffffffffffffff16036111ee576040517f08c379a00000000000000000000000000000000000000000000000000000000081526004016111e590613a48565b60405180910390fd5b6002836040516111fe9190613322565b90815260200160405180910390206000808201600061121d9190612a48565b60018201600061122d9190612a48565b6002820160006101000a81549073ffffffffffffffffffffffffffffffffffffffff021916905550506001915050919050565b60005481565b600033600460009054906101000a900473ffffffffffffffffffffffffffffffffffffffff1673ffffffffffffffffffffffffffffffffffffffff168173ffffffffffffffffffffffffffffffffffffffff16146112f9576040517f08c379a00000000000000000000000000000000000000000000000000000000081526004016112f090613ada565b60405180910390fd5b600073ffffffffffffffffffffffffffffffffffffffff16600360008673ffffffffffffffffffffffffffffffffffffffff1673ffffffffffffffffffffffffffffffffffffffff16815260200190815260200160002060010160009054906101000a900473ffffffffffffffffffffffffffffffffffffffff1673ffffffffffffffffffffffffffffffffffffffff16036113ca576040517f08c379a00000000000000000000000000000000000000000000000000000000081526004016113c1906138d1565b60405180910390fd5b82600360008673ffffffffffffffffffffffffffffffffffffffff1673ffffffffffffffffffffffffffffffffffffffff16815260200190815260200160002060040160006101000a81548160ff021916908315150217905550600191505092915050565b600033600360008273ffffffffffffffffffffffffffffffffffffffff1673ffffffffffffffffffffffffffffffffffffffff16815260200190815260200160002060040160009054906101000a900460ff166114c1576040517f08c379a00000000000000000000000000000000000000000000000000000000081526004016114b8906132c6565b60405180910390fd5b600073ffffffffffffffffffffffffffffffffffffffff166002846040516114e99190613322565b908152602001604051809103902060020160009054906101000a900473ffffffffffffffffffffffffffffffffffffffff1673ffffffffffffffffffffffffffffffffffffffff1603611571576040517f08c379a000000000000000000000000000000000000000000000000000000000815260040161156890613a48565b60405180910390fd5b6002836040516115819190613322565b9081526020016040518091039020600080820160006115a09190612a48565b6001820160006115b09190612a48565b6002820160006101000a81549073ffffffffffffffffffffffffffffffffffffffff02191690555050600073ffffffffffffffffffffffffffffffffffffffff166001846040516116019190613322565b908152602001604051809103902060050160009054906101000a900473ffffffffffffffffffffffffffffffffffffffff1673ffffffffffffffffffffffffffffffffffffffff1603611689576040517f08c379a000000000000000000000000000000000000000000000000000000000815260040161168090613385565b60405180910390fd5b600060018460405161169b9190613322565b90815260200160405180910390206003018190555060006001846040516116c29190613322565b9081526020016040518091039020600401819055506001915050919050565b6003602052806000526040600020600091509050806000018054611704906133d4565b80601f0160208091040260200160405190810160405280929190818152602001828054611730906133d4565b801561177d5780601f106117525761010080835404028352916020019161177d565b820191906000526020600020905b81548152906001019060200180831161176057829003601f168201915b5050505050908060010160009054906101000a900473ffffffffffffffffffffffffffffffffffffffff16908060020154908060030154908060040160009054906101000a900460ff16908060050180546117d7906133d4565b80601f0160208091040260200160405190810160405280929190818152602001828054611803906133d4565b80156118505780601f1061182557610100808354040283529160200191611850565b820191906000526020600020905b81548152906001019060200180831161183357829003601f168201915b5050505050905086565b600033600360008273ffffffffffffffffffffffffffffffffffffffff1673ffffffffffffffffffffffffffffffffffffffff16815260200190815260200160002060040160009054906101000a900460ff166118ec576040517f08c379a00000000000000000000000000000000000000000000000000000000081526004016118e3906132c6565b60405180910390fd5b600073ffffffffffffffffffffffffffffffffffffffff166001846040516119149190613322565b908152602001604051809103902060050160009054906101000a900473ffffffffffffffffffffffffffffffffffffffff1673ffffffffffffffffffffffffffffffffffffffff160361199c576040517f08c379a000000000000000000000000000000000000000000000000000000000815260040161199390613385565b60405180910390fd5b600180846040516119ad9190613322565b908152602001604051809103902060040160008282546119cd9190613920565b925050819055506001836040516119e49190613322565b908152602001604051809103902060040154600184604051611a069190613322565b908152602001604051809103902060030154118015611a5357506003600054611a2f91906139a5565b600184604051611a3f9190613322565b908152602001604051809103902060040154105b15611a965760018084604051611a699190613322565b908152602001604051809103902060020160006101000a81548160ff021916908315150217905550611ad1565b6000600184604051611aa89190613322565b908152602001604051809103902060020160006101000a81548160ff0219169083151502179055505b6001915050919050565b611ae3612a88565b600073ffffffffffffffffffffffffffffffffffffffff16600360008473ffffffffffffffffffffffffffffffffffffffff1673ffffffffffffffffffffffffffffffffffffffff16815260200190815260200160002060010160009054906101000a900473ffffffffffffffffffffffffffffffffffffffff1673ffffffffffffffffffffffffffffffffffffffff1603611bb4576040517f08c379a0000000000000000000000000000000000000000000000000000000008152600401611bab906138d1565b60405180910390fd5b600360008373ffffffffffffffffffffffffffffffffffffffff1673ffffffffffffffffffffffffffffffffffffffff1681526020019081526020016000206040518060c0016040529081600082018054611c0e906133d4565b80601f0160208091040260200160405190810160405280929190818152602001828054611c3a906133d4565b8015611c875780601f10611c5c57610100808354040283529160200191611c87565b820191906000526020600020905b815481529060010190602001808311611c6a57829003601f168201915b505050505081526020016001820160009054906101000a900473ffffffffffffffffffffffffffffffffffffffff1673ffffffffffffffffffffffffffffffffffffffff1673ffffffffffffffffffffffffffffffffffffffff16815260200160028201548152602001600382015481526020016004820160009054906101000a900460ff16151515158152602001600582018054611d25906133d4565b80601f0160208091040260200160405190810160405280929190818152602001828054611d51906133d4565b8015611d9e5780601f10611d7357610100808354040283529160200191611d9e565b820191906000526020600020905b815481529060010190602001808311611d8157829003601f168201915b5050505050815250509050919050565b600033600460009054906101000a900473ffffffffffffffffffffffffffffffffffffffff1673ffffffffffffffffffffffffffffffffffffffff168173ffffffffffffffffffffffffffffffffffffffff1614611e41576040517f08c379a0000000000000000000000000000000000000000000000000000000008152600401611e3890613ada565b60405180910390fd5b600073ffffffffffffffffffffffffffffffffffffffff16600360008573ffffffffffffffffffffffffffffffffffffffff1673ffffffffffffffffffffffffffffffffffffffff16815260200190815260200160002060010160009054906101000a900473ffffffffffffffffffffffffffffffffffffffff1673ffffffffffffffffffffffffffffffffffffffff1603611f12576040517f08c379a0000000000000000000000000000000000000000000000000000000008152600401611f09906138d1565b60405180910390fd5b600360008473ffffffffffffffffffffffffffffffffffffffff1673ffffffffffffffffffffffffffffffffffffffff16815260200190815260200160002060008082016000611f629190612a48565b6001820160006101000a81549073ffffffffffffffffffffffffffffffffffffffff0219169055600282016000905560038201600090556004820160006101000a81549060ff0219169055600582016000611fbd9190612a48565b50506001915050919050565b600181805160208101820180518482526020830160208501208183528095505050505050600091509050806000018054612002906133d4565b80601f016020809104026020016040519081016040528092919081815260200182805461202e906133d4565b801561207b5780601f106120505761010080835404028352916020019161207b565b820191906000526020600020905b81548152906001019060200180831161205e57829003601f168201915b505050505090806001018054612090906133d4565b80601f01602080910402602001604051908101604052809291908181526020018280546120bc906133d4565b80156121095780601f106120de57610100808354040283529160200191612109565b820191906000526020600020905b8154815290600101906020018083116120ec57829003601f168201915b5050505050908060020160009054906101000a900460ff16908060030154908060040154908060050160009054906101000a900473ffffffffffffffffffffffffffffffffffffffff16905086565b600033600360008273ffffffffffffffffffffffffffffffffffffffff1673ffffffffffffffffffffffffffffffffffffffff16815260200190815260200160002060040160009054906101000a900460ff166121ea576040517f08c379a00000000000000000000000000000000000000000000000000000000081526004016121e1906132c6565b60405180910390fd5b600073ffffffffffffffffffffffffffffffffffffffff16600360008673ffffffffffffffffffffffffffffffffffffffff1673ffffffffffffffffffffffffffffffffffffffff16815260200190815260200160002060010160009054906101000a900473ffffffffffffffffffffffffffffffffffffffff1673ffffffffffffffffffffffffffffffffffffffff16036122bb576040517f08c379a00000000000000000000000000000000000000000000000000000000081526004016122b2906138d1565b60405180910390fd5b6001600360008673ffffffffffffffffffffffffffffffffffffffff1673ffffffffffffffffffffffffffffffffffffffff168152602001908152602001600020600201600082825461230e9190613920565b92505081905550600360005461232491906139a5565b600360008673ffffffffffffffffffffffffffffffffffffffff1673ffffffffffffffffffffffffffffffffffffffff1681526020019081526020016000206002015411156123c9576000600360008673ffffffffffffffffffffffffffffffffffffffff1673ffffffffffffffffffffffffffffffffffffffff16815260200190815260200160002060040160006101000a81548160ff0219169083151502179055505b600191505092915050565b600033600360008273ffffffffffffffffffffffffffffffffffffffff1673ffffffffffffffffffffffffffffffffffffffff16815260200190815260200160002060040160009054906101000a900460ff16612466576040517f08c379a000000000000000000000000000000000000000000000000000000000815260040161245d906132c6565b60405180910390fd5b600073ffffffffffffffffffffffffffffffffffffffff1660028560405161248e9190613322565b908152602001604051809103902060020160009054906101000a900473ffffffffffffffffffffffffffffffffffffffff1673ffffffffffffffffffffffffffffffffffffffff1614612516576040517f08c379a000000000000000000000000000000000000000000000000000000000815260040161250d90613b6c565b60405180910390fd5b600073ffffffffffffffffffffffffffffffffffffffff1660018560405161253e9190613322565b908152602001604051809103902060050160009054906101000a900473ffffffffffffffffffffffffffffffffffffffff1673ffffffffffffffffffffffffffffffffffffffff16146125c6576040517f08c379a00000000000000000000000000000000000000000000000000000000081526004016125bd90613477565b60405180910390fd5b836002856040516125d79190613322565b908152602001604051809103902060000190816125f491906137b3565b50826002856040516126069190613322565b9081526020016040518091039020600101908161262391906137b3565b50336002856040516126359190613322565b908152602001604051809103902060020160006101000a81548173ffffffffffffffffffffffffffffffffffffffff021916908373ffffffffffffffffffffffffffffffffffffffff160217905550600191505092915050565b600033600460009054906101000a900473ffffffffffffffffffffffffffffffffffffffff1673ffffffffffffffffffffffffffffffffffffffff168173ffffffffffffffffffffffffffffffffffffffff1614612722576040517f08c379a000000000000000000000000000000000000000000000000000000000815260040161271990613ada565b60405180910390fd5b600073ffffffffffffffffffffffffffffffffffffffff16600360008673ffffffffffffffffffffffffffffffffffffffff1673ffffffffffffffffffffffffffffffffffffffff16815260200190815260200160002060010160009054906101000a900473ffffffffffffffffffffffffffffffffffffffff1673ffffffffffffffffffffffffffffffffffffffff16146127f3576040517f08c379a00000000000000000000000000000000000000000000000000000000081526004016127ea90613bd8565b60405180910390fd5b84600360008673ffffffffffffffffffffffffffffffffffffffff1673ffffffffffffffffffffffffffffffffffffffff168152602001908152602001600020600001908161284291906137b3565b5083600360008673ffffffffffffffffffffffffffffffffffffffff1673ffffffffffffffffffffffffffffffffffffffff16815260200190815260200160002060010160006101000a81548173ffffffffffffffffffffffffffffffffffffffff021916908373ffffffffffffffffffffffffffffffffffffffff1602179055506000600360008673ffffffffffffffffffffffffffffffffffffffff1673ffffffffffffffffffffffffffffffffffffffff168152602001908152602001600020600201819055506000600360008673ffffffffffffffffffffffffffffffffffffffff1673ffffffffffffffffffffffffffffffffffffffff168152602001908152602001600020600301819055506001600360008673ffffffffffffffffffffffffffffffffffffffff1673ffffffffffffffffffffffffffffffffffffffff16815260200190815260200160002060040160006101000a81548160ff02191690831515021790555082600360008673ffffffffffffffffffffffffffffffffffffffff1673ffffffffffffffffffffffffffffffffffffffff16815260200190815260200160002060050190816129fe91906137b3565b50600080815480929190612a1190613bf8565b919050555060019150509392505050565b600460009054906101000a900473ffffffffffffffffffffffffffffffffffffffff1681565b508054612a54906133d4565b6000825580601f10612a665750612a85565b601f016020900490600052602060002090810190612a849190612ad6565b5b50565b6040518060c0016040528060608152602001600073ffffffffffffffffffffffffffffffffffffffff1681526020016000815260200160008152602001600015158152602001606081525090565b5b80821115612aef576000816000905550600101612ad7565b5090565b6000604051905090565b600080fd5b600080fd5b600080fd5b600080fd5b6000601f19601f8301169050919050565b7f4e487b7100000000000000000000000000000000000000000000000000000000600052604160045260246000fd5b612b5a82612b11565b810181811067ffffffffffffffff82111715612b7957612b78612b22565b5b80604052505050565b6000612b8c612af3565b9050612b988282612b51565b919050565b600067ffffffffffffffff821115612bb857612bb7612b22565b5b612bc182612b11565b9050602081019050919050565b82818337600083830152505050565b6000612bf0612beb84612b9d565b612b82565b905082815260208101848484011115612c0c57612c0b612b0c565b5b612c17848285612bce565b509392505050565b600082601f830112612c3457612c33612b07565b5b8135612c44848260208601612bdd565b91505092915050565b600060208284031215612c6357612c62612afd565b5b600082013567ffffffffffffffff811115612c8157612c80612b02565b5b612c8d84828501612c1f565b91505092915050565b600081519050919050565b600082825260208201905092915050565b60005b83811015612cd0578082015181840152602081019050612cb5565b83811115612cdf576000848401525b50505050565b6000612cf082612c96565b612cfa8185612ca1565b9350612d0a818560208601612cb2565b612d1381612b11565b840191505092915050565b60008115159050919050565b612d3381612d1e565b82525050565b6000819050919050565b612d4c81612d39565b82525050565b600073ffffffffffffffffffffffffffffffffffffffff82169050919050565b6000612d7d82612d52565b9050919050565b612d8d81612d72565b82525050565b600060c0820190508181036000830152612dad8189612ce5565b90508181036020830152612dc18188612ce5565b9050612dd06040830187612d2a565b612ddd6060830186612d43565b612dea6080830185612d43565b612df760a0830184612d84565b979650505050505050565b60008060408385031215612e1957612e18612afd565b5b600083013567ffffffffffffffff811115612e3757612e36612b02565b5b612e4385828601612c1f565b925050602083013567ffffffffffffffff811115612e6457612e63612b02565b5b612e7085828601612c1f565b9150509250929050565b6000602082019050612e8f6000830184612d2a565b92915050565b612e9e81612d72565b8114612ea957600080fd5b50565b600081359050612ebb81612e95565b92915050565b600060208284031215612ed757612ed6612afd565b5b6000612ee584828501612eac565b91505092915050565b6000602082019050612f036000830184612d43565b92915050565b60006060820190508181036000830152612f238186612ce5565b90508181036020830152612f378185612ce5565b9050612f466040830184612d84565b949350505050565b612f5781612d1e565b8114612f6257600080fd5b50565b600081359050612f7481612f4e565b92915050565b60008060408385031215612f9157612f90612afd565b5b6000612f9f85828601612eac565b9250506020612fb085828601612f65565b9150509250929050565b600060c0820190508181036000830152612fd48189612ce5565b9050612fe36020830188612d84565b612ff06040830187612d43565b612ffd6060830186612d43565b61300a6080830185612d2a565b81810360a083015261301c8184612ce5565b9050979650505050505050565b600082825260208201905092915050565b600061304582612c96565b61304f8185613029565b935061305f818560208601612cb2565b61306881612b11565b840191505092915050565b61307c81612d72565b82525050565b61308b81612d39565b82525050565b61309a81612d1e565b82525050565b600060c08301600083015184820360008601526130bd828261303a565b91505060208301516130d26020860182613073565b5060408301516130e56040860182613082565b5060608301516130f86060860182613082565b50608083015161310b6080860182613091565b5060a083015184820360a0860152613123828261303a565b9150508091505092915050565b6000602082019050818103600083015261314a81846130a0565b905092915050565b6000806040838503121561316957613168612afd565b5b600061317785828601612eac565b925050602083013567ffffffffffffffff81111561319857613197612b02565b5b6131a485828601612c1f565b9150509250929050565b6000806000606084860312156131c7576131c6612afd565b5b600084013567ffffffffffffffff8111156131e5576131e4612b02565b5b6131f186828701612c1f565b935050602061320286828701612eac565b925050604084013567ffffffffffffffff81111561322357613222612b02565b5b61322f86828701612c1f565b9150509250925092565b600060208201905061324e6000830184612d84565b92915050565b7f42616e6b206973206e6f7420616c6c6f77656420666f7220657865637574696e60008201527f672074686973206675636e74696f6e0000000000000000000000000000000000602082015250565b60006132b0602f83612ca1565b91506132bb82613254565b604082019050919050565b600060208201905081810360008301526132df816132a3565b9050919050565b600081905092915050565b60006132fc82612c96565b61330681856132e6565b9350613316818560208601612cb2565b80840191505092915050565b600061332e82846132f1565b915081905092915050565b7f437573746f6d657220646f65736e277420657869737400000000000000000000600082015250565b600061336f601683612ca1565b915061337a82613339565b602082019050919050565b6000602082019050818103600083015261339e81613362565b9050919050565b7f4e487b7100000000000000000000000000000000000000000000000000000000600052602260045260246000fd5b600060028204905060018216806133ec57607f821691505b6020821081036133ff576133fe6133a5565b5b50919050565b7f437573746f6d657220697320616c72656164792070726573656e7420696e207460008201527f6865206461746162617365000000000000000000000000000000000000000000602082015250565b6000613461602b83612ca1565b915061346c82613405565b604082019050919050565b6000602082019050818103600083015261349081613454565b9050919050565b7f4b5943207265717565737420746f20626520616464656420666972737420626560008201527f666f726520616464696e672074686520637573746f6d657220746f206461746160208201527f6261736500000000000000000000000000000000000000000000000000000000604082015250565b6000613519604483612ca1565b915061352482613497565b606082019050919050565b600060208201905081810360008301526135488161350c565b9050919050565b7f4f6e6c79207468652062616e6b2077686f20696e69746961746564207468652060008201527f4b594320726571756573742063616e20616464207468697320637573746f6d6560208201527f7220746f20746865206461746162617365000000000000000000000000000000604082015250565b60006135d1605183612ca1565b91506135dc8261354f565b606082019050919050565b60006020820190508181036000830152613600816135c4565b9050919050565b60008190508160005260206000209050919050565b60006020601f8301049050919050565b600082821b905092915050565b6000600883026136697fffffffffffffffffffffffffffffffffffffffffffffffffffffffffffffffff8261362c565b613673868361362c565b95508019841693508086168417925050509392505050565b6000819050919050565b60006136b06136ab6136a684612d39565b61368b565b612d39565b9050919050565b6000819050919050565b6136ca83613695565b6136de6136d6826136b7565b848454613639565b825550505050565b600090565b6136f36136e6565b6136fe8184846136c1565b505050565b5b81811015613722576137176000826136eb565b600181019050613704565b5050565b601f8211156137675761373881613607565b6137418461361c565b81016020851015613750578190505b61376461375c8561361c565b830182613703565b50505b505050565b600082821c905092915050565b600061378a6000198460080261376c565b1980831691505092915050565b60006137a38383613779565b9150826002028217905092915050565b6137bc82612c96565b67ffffffffffffffff8111156137d5576137d4612b22565b5b6137df82546133d4565b6137ea828285613726565b600060209050601f83116001811461381d576000841561380b578287015190505b6138158582613797565b86555061387d565b601f19841661382b86613607565b60005b828110156138535784890151825560018201915060208501945060208101905061382e565b86831015613870578489015161386c601f891682613779565b8355505b6001600288020188555050505b505050505050565b7f4e6f20737563682062616e6b2065786973747300000000000000000000000000600082015250565b60006138bb601383612ca1565b91506138c682613885565b602082019050919050565b600060208201905081810360008301526138ea816138ae565b9050919050565b7f4e487b7100000000000000000000000000000000000000000000000000000000600052601160045260246000fd5b600061392b82612d39565b915061393683612d39565b9250827fffffffffffffffffffffffffffffffffffffffffffffffffffffffffffffffff0382111561396b5761396a6138f1565b5b828201905092915050565b7f4e487b7100000000000000000000000000000000000000000000000000000000600052601260045260246000fd5b60006139b082612d39565b91506139bb83612d39565b9250826139cb576139ca613976565b5b828204905092915050565b7f5468657265206973206e6f2073756368207265717565737420746f2072656d6f60008201527f7665000000000000000000000000000000000000000000000000000000000000602082015250565b6000613a32602283612ca1565b9150613a3d826139d6565b604082019050919050565b60006020820190508181036000830152613a6181613a25565b9050919050565b7f596f7520617265206e6f7420617574686f72697a656420746f20706572666f7260008201527f6d20746869732066756e6374696f6e0000000000000000000000000000000000602082015250565b6000613ac4602f83612ca1565b9150613acf82613a68565b604082019050919050565b60006020820190508181036000830152613af381613ab7565b9050919050565b7f4b594320726571756573742068617320616c7265616479206265656e2061646460008201527f656420666f72207468697320637573746f6d6572000000000000000000000000602082015250565b6000613b56603483612ca1565b9150613b6182613afa565b604082019050919050565b60006020820190508181036000830152613b8581613b49565b9050919050565b7f42616e6b20616c72656164792065786973747300000000000000000000000000600082015250565b6000613bc2601383612ca1565b9150613bcd82613b8c565b602082019050919050565b60006020820190508181036000830152613bf181613bb5565b9050919050565b6000613c0382612d39565b91507fffffffffffffffffffffffffffffffffffffffffffffffffffffffffffffffff8203613c3557613c346138f1565b5b60018201905091905056fea2646970667358221220a83427aecd008e0b485c9bea280f175ded0ddc43d7a08e00ebe275f1a035dfa664736f6c634300080f0033",
  "immutableReferences": {},
  "source": "//SPDX-License-Identifier: UNLICENSED\r\npragma solidity ^0.8.7;\r\n\r\nimport \"./BankInterface.sol\";\r\n\r\ncontract AdminApp is BankApp{\r\n    address public admin;   //address of administrator of the network of banks\r\n\r\n    //initialize admin  at the time of contract deployment\r\n    constructor() {\r\n        admin = msg.sender;\r\n    }\r\n\r\n    //only admin can call certain fucntions\r\n    modifier onlyAdmin(address caller){\r\n        require(caller == admin, \"You are not authorized to perform this function\");\r\n        _;\r\n    }\r\n\r\n    //to add new bank to the list of banks by admin\r\n    function addBank(string memory _name, address _ethAddress, string memory _regNumber) public onlyAdmin(msg.sender) returns(bool success){\r\n        require(banks[_ethAddress].ethAddress == address(0), \"Bank already exists\");\r\n        //add a bank to banks mapping only if it was not added already\r\n        banks[_ethAddress].name = _name;\r\n        banks[_ethAddress].ethAddress = _ethAddress;\r\n        banks[_ethAddress].complaintsReported = 0;\r\n        banks[_ethAddress].KYC_count = 0;\r\n        banks[_ethAddress].isAllowedToVote = true;\r\n        banks[_ethAddress].regNumber = _regNumber;\r\n        numOfBanks++;\r\n        success = true;\r\n    }\r\n    //to modify isAllowedToVote property for a bank by admin\r\n    function modifyBankIsAllowedToVote(address _ethAddress, bool _isAllowedToVote) public onlyAdmin(msg.sender) returns(bool success){\r\n        require(banks[_ethAddress].ethAddress != address(0), \"No such bank exists\");\r\n        //change isAllowedToVote property for a bank only if the bank exists\r\n        banks[_ethAddress].isAllowedToVote = _isAllowedToVote;\r\n        success = true;\r\n    }\r\n    //to remove a bank from banks mapping by admin\r\n    function removeBank(address _ethAddress) public onlyAdmin(msg.sender) returns(bool success){\r\n        require(banks[_ethAddress].ethAddress != address(0), \"No such bank exists\");\r\n        //remove the bank only if it exists\r\n        delete banks[_ethAddress];\r\n        success = true;\r\n    }\r\n}",
  "sourcePath": "D:\\personal\\blockchain-program\\KYC-Case-Study\\Phase-3\\KYC-SC\\contracts\\KYC.sol",
  "compiler": {
    "name": "solc",
    "version": "0.8.15+commit.e14f2714.Emscripten.clang"
  },
  "schemaVersion": "3.4.7",
  "updatedAt": "2022-07-12T17:15:44.744Z",
  "networkType": "ethereum",
  "devdoc": {
    "kind": "dev",
    "methods": {},
    "version": 1
  },
  "userdoc": {
    "kind": "user",
    "methods": {},
    "version": 1
  }
}