{
  "contractName": "BankApp",
  "abi": [
    {
      "inputs": [
        {
          "internalType": "address",
          "name": "",
          "type": "address"
        }
      ],
      "name": "banks",
      "outputs": [
        {
          "internalType": "string",
          "name": "name",
          "type": "string"
        },
        {
          "internalType": "address",
          "name": "ethAddress",
          "type": "address"
        },
        {
          "internalType": "uint256",
          "name": "complaintsReported",
          "type": "uint256"
        },
        {
          "internalType": "uint256",
          "name": "KYC_count",
          "type": "uint256"
        },
        {
          "internalType": "bool",
          "name": "isAllowedToVote",
          "type": "bool"
        },
        {
          "internalType": "string",
          "name": "regNumber",
          "type": "string"
        }
      ],
      "stateMutability": "view",
      "type": "function"
    },
    {
      "inputs": [
        {
          "internalType": "string",
          "name": "",
          "type": "string"
        }
      ],
      "name": "customers",
      "outputs": [
        {
          "internalType": "string",
          "name": "username",
          "type": "string"
        },
        {
          "internalType": "string",
          "name": "customerData",
          "type": "string"
        },
        {
          "internalType": "bool",
          "name": "kycStatus",
          "type": "bool"
        },
        {
          "internalType": "uint256",
          "name": "upvotes",
          "type": "uint256"
        },
        {
          "internalType": "uint256",
          "name": "downvotes",
          "type": "uint256"
        },
        {
          "internalType": "address",
          "name": "bank",
          "type": "address"
        }
      ],
      "stateMutability": "view",
      "type": "function"
    },
    {
      "inputs": [],
      "name": "numOfBanks",
      "outputs": [
        {
          "internalType": "uint256",
          "name": "",
          "type": "uint256"
        }
      ],
      "stateMutability": "view",
      "type": "function"
    },
    {
      "inputs": [
        {
          "internalType": "string",
          "name": "",
          "type": "string"
        }
      ],
      "name": "requests",
      "outputs": [
        {
          "internalType": "string",
          "name": "username",
          "type": "string"
        },
        {
          "internalType": "string",
          "name": "customerData",
          "type": "string"
        },
        {
          "internalType": "address",
          "name": "bank",
          "type": "address"
        }
      ],
      "stateMutability": "view",
      "type": "function"
    },
    {
      "inputs": [
        {
          "internalType": "string",
          "name": "_username",
          "type": "string"
        },
        {
          "internalType": "string",
          "name": "_customerData",
          "type": "string"
        }
      ],
      "name": "addRequest",
      "outputs": [
        {
          "internalType": "bool",
          "name": "success",
          "type": "bool"
        }
      ],
      "stateMutability": "nonpayable",
      "type": "function"
    },
    {
      "inputs": [
        {
          "internalType": "string",
          "name": "_username",
          "type": "string"
        },
        {
          "internalType": "string",
          "name": "_customerData",
          "type": "string"
        }
      ],
      "name": "addCustomer",
      "outputs": [
        {
          "internalType": "bool",
          "name": "success",
          "type": "bool"
        }
      ],
      "stateMutability": "nonpayable",
      "type": "function"
    },
    {
      "inputs": [
        {
          "internalType": "string",
          "name": "_username",
          "type": "string"
        }
      ],
      "name": "removeRequest",
      "outputs": [
        {
          "internalType": "bool",
          "name": "success",
          "type": "bool"
        }
      ],
      "stateMutability": "nonpayable",
      "type": "function"
    },
    {
      "inputs": [
        {
          "internalType": "string",
          "name": "_username",
          "type": "string"
        }
      ],
      "name": "viewCustomer",
      "outputs": [
        {
          "internalType": "string",
          "name": "",
          "type": "string"
        },
        {
          "internalType": "string",
          "name": "",
          "type": "string"
        },
        {
          "internalType": "bool",
          "name": "",
          "type": "bool"
        },
        {
          "internalType": "uint256",
          "name": "",
          "type": "uint256"
        },
        {
          "internalType": "uint256",
          "name": "",
          "type": "uint256"
        },
        {
          "internalType": "address",
          "name": "",
          "type": "address"
        }
      ],
      "stateMutability": "view",
      "type": "function"
    },
    {
      "inputs": [
        {
          "internalType": "string",
          "name": "_username",
          "type": "string"
        }
      ],
      "name": "upvote",
      "outputs": [
        {
          "internalType": "bool",
          "name": "success",
          "type": "bool"
        }
      ],
      "stateMutability": "nonpayable",
      "type": "function"
    },
    {
      "inputs": [
        {
          "internalType": "string",
          "name": "_username",
          "type": "string"
        }
      ],
      "name": "downvote",
      "outputs": [
        {
          "internalType": "bool",
          "name": "success",
          "type": "bool"
        }
      ],
      "stateMutability": "nonpayable",
      "type": "function"
    },
    {
      "inputs": [
        {
          "internalType": "string",
          "name": "_username",
          "type": "string"
        }
      ],
      "name": "modifyCustomer",
      "outputs": [
        {
          "internalType": "bool",
          "name": "success",
          "type": "bool"
        }
      ],
      "stateMutability": "nonpayable",
      "type": "function"
    },
    {
      "inputs": [
        {
          "internalType": "address",
          "name": "_ethAddress",
          "type": "address"
        }
      ],
      "name": "getBankComplaints",
      "outputs": [
        {
          "internalType": "uint256",
          "name": "",
          "type": "uint256"
        }
      ],
      "stateMutability": "view",
      "type": "function"
    },
    {
      "inputs": [
        {
          "internalType": "address",
          "name": "_ethAddress",
          "type": "address"
        }
      ],
      "name": "viewBankDetails",
      "outputs": [
        {
          "components": [
            {
              "internalType": "string",
              "name": "name",
              "type": "string"
            },
            {
              "internalType": "address",
              "name": "ethAddress",
              "type": "address"
            },
            {
              "internalType": "uint256",
              "name": "complaintsReported",
              "type": "uint256"
            },
            {
              "internalType": "uint256",
              "name": "KYC_count",
              "type": "uint256"
            },
            {
              "internalType": "bool",
              "name": "isAllowedToVote",
              "type": "bool"
            },
            {
              "internalType": "string",
              "name": "regNumber",
              "type": "string"
            }
          ],
          "internalType": "struct BankApp.Bank",
          "name": "",
          "type": "tuple"
        }
      ],
      "stateMutability": "view",
      "type": "function"
    },
    {
      "inputs": [
        {
          "internalType": "address",
          "name": "_ethAddress",
          "type": "address"
        },
        {
          "internalType": "string",
          "name": "_name",
          "type": "string"
        }
      ],
      "name": "reportBank",
      "outputs": [
        {
          "internalType": "bool",
          "name": "success",
          "type": "bool"
        }
      ],
      "stateMutability": "nonpayable",
      "type": "function"
    }
  ],
  "bytecode": "0x608060405234801561001057600080fd5b506131a7806100206000396000f3fe608060405234801561001057600080fd5b50600436106100ea5760003560e01c80637d0c1d091161008c57806388cc8d8d1161006657806388cc8d8d146102c9578063a82c98d0146102f9578063b23852041461032e578063b9da4af81461035e576100ea565b80637d0c1d091461023457806380c3b8c2146102645780638374d7d514610299576100ea565b806360bde833116100c857806360bde83314610184578063692d51d2146101b45780636cba00e6146101e65780637b14505014610216576100ea565b8063107925bb146100ef5780633190abc0146101245780635ec2a7f214610154575b600080fd5b610109600480360381019061010491906123d6565b61038e565b60405161011b9695949392919061251c565b60405180910390f35b61013e6004803603810190610139919061258b565b6106fc565b60405161014b9190612603565b60405180910390f35b61016e6004803603810190610169919061264a565b610ac5565b60405161017b9190612677565b60405180910390f35b61019e600480360381019061019991906123d6565b610be1565b6040516101ab9190612603565b60405180910390f35b6101ce60048036038101906101c991906123d6565b610e62565b6040516101dd93929190612692565b60405180910390f35b61020060048036038101906101fb91906123d6565b610fd2565b60405161020d9190612603565b60405180910390f35b61021e611186565b60405161022b9190612677565b60405180910390f35b61024e600480360381019061024991906123d6565b61118c565b60405161025b9190612603565b60405180910390f35b61027e6004803603810190610279919061264a565b61143e565b604051610290969594939291906126d7565b60405180910390f35b6102b360048036038101906102ae91906123d6565b6115b7565b6040516102c09190612603565b60405180910390f35b6102e360048036038101906102de919061264a565b611838565b6040516102f0919061284d565b60405180910390f35b610313600480360381019061030e91906123d6565b611b0b565b6040516103259695949392919061251c565b60405180910390f35b6103486004803603810190610343919061286f565b611c9a565b6040516103559190612603565b60405180910390f35b6103786004803603810190610373919061258b565b611f16565b6040516103859190612603565b60405180910390f35b60608060008060008033600360008273ffffffffffffffffffffffffffffffffffffffff1673ffffffffffffffffffffffffffffffffffffffff16815260200190815260200160002060040160009054906101000a900460ff16610427576040517f08c379a000000000000000000000000000000000000000000000000000000000815260040161041e9061293d565b60405180910390fd5b600073ffffffffffffffffffffffffffffffffffffffff1660018960405161044f9190612999565b908152602001604051809103902060050160009054906101000a900473ffffffffffffffffffffffffffffffffffffffff1673ffffffffffffffffffffffffffffffffffffffff16036104d7576040517f08c379a00000000000000000000000000000000000000000000000000000000081526004016104ce906129fc565b60405180910390fd5b6001886040516104e79190612999565b90815260200160405180910390206000016001896040516105089190612999565b908152602001604051809103902060010160018a6040516105299190612999565b908152602001604051809103902060020160009054906101000a900460ff1660018b6040516105589190612999565b90815260200160405180910390206003015460018c60405161057a9190612999565b90815260200160405180910390206004015460018d60405161059c9190612999565b908152602001604051809103902060050160009054906101000a900473ffffffffffffffffffffffffffffffffffffffff168580546105da90612a4b565b80601f016020809104026020016040519081016040528092919081815260200182805461060690612a4b565b80156106535780601f1061062857610100808354040283529160200191610653565b820191906000526020600020905b81548152906001019060200180831161063657829003601f168201915b5050505050955084805461066690612a4b565b80601f016020809104026020016040519081016040528092919081815260200182805461069290612a4b565b80156106df5780601f106106b4576101008083540402835291602001916106df565b820191906000526020600020905b8154815290600101906020018083116106c257829003601f168201915b505050505094509650965096509650965096505091939550919395565b600033600360008273ffffffffffffffffffffffffffffffffffffffff1673ffffffffffffffffffffffffffffffffffffffff16815260200190815260200160002060040160009054906101000a900460ff1661078e576040517f08c379a00000000000000000000000000000000000000000000000000000000081526004016107859061293d565b60405180910390fd5b600073ffffffffffffffffffffffffffffffffffffffff166001856040516107b69190612999565b908152602001604051809103902060050160009054906101000a900473ffffffffffffffffffffffffffffffffffffffff1673ffffffffffffffffffffffffffffffffffffffff161461083e576040517f08c379a000000000000000000000000000000000000000000000000000000000815260040161083590612aee565b60405180910390fd5b600073ffffffffffffffffffffffffffffffffffffffff166002856040516108669190612999565b908152602001604051809103902060020160009054906101000a900473ffffffffffffffffffffffffffffffffffffffff1673ffffffffffffffffffffffffffffffffffffffff16036108ee576040517f08c379a00000000000000000000000000000000000000000000000000000000081526004016108e590612ba6565b60405180910390fd5b3373ffffffffffffffffffffffffffffffffffffffff166002856040516109159190612999565b908152602001604051809103902060020160009054906101000a900473ffffffffffffffffffffffffffffffffffffffff1673ffffffffffffffffffffffffffffffffffffffff161461099d576040517f08c379a000000000000000000000000000000000000000000000000000000000815260040161099490612c5e565b60405180910390fd5b836001856040516109ae9190612999565b908152602001604051809103902060000190816109cb9190612e2a565b50826001856040516109dd9190612999565b908152602001604051809103902060010190816109fa9190612e2a565b5033600185604051610a0c9190612999565b908152602001604051809103902060050160006101000a81548173ffffffffffffffffffffffffffffffffffffffff021916908373ffffffffffffffffffffffffffffffffffffffff16021790555060018085604051610a6c9190612999565b90815260200160405180910390206003018190555060018085604051610a929190612999565b908152602001604051809103902060020160006101000a81548160ff021916908315150217905550600191505092915050565b60008073ffffffffffffffffffffffffffffffffffffffff16600360008473ffffffffffffffffffffffffffffffffffffffff1673ffffffffffffffffffffffffffffffffffffffff16815260200190815260200160002060010160009054906101000a900473ffffffffffffffffffffffffffffffffffffffff1673ffffffffffffffffffffffffffffffffffffffff1603610b97576040517f08c379a0000000000000000000000000000000000000000000000000000000008152600401610b8e90612f48565b60405180910390fd5b600360008373ffffffffffffffffffffffffffffffffffffffff1673ffffffffffffffffffffffffffffffffffffffff168152602001908152602001600020600201549050919050565b600033600360008273ffffffffffffffffffffffffffffffffffffffff1673ffffffffffffffffffffffffffffffffffffffff16815260200190815260200160002060040160009054906101000a900460ff16610c73576040517f08c379a0000000000000000000000000000000000000000000000000000000008152600401610c6a9061293d565b60405180910390fd5b600073ffffffffffffffffffffffffffffffffffffffff16600184604051610c9b9190612999565b908152602001604051809103902060050160009054906101000a900473ffffffffffffffffffffffffffffffffffffffff1673ffffffffffffffffffffffffffffffffffffffff1603610d23576040517f08c379a0000000000000000000000000000000000000000000000000000000008152600401610d1a906129fc565b60405180910390fd5b60018084604051610d349190612999565b90815260200160405180910390206003016000828254610d549190612f97565b92505081905550600183604051610d6b9190612999565b908152602001604051809103902060040154600184604051610d8d9190612999565b908152602001604051809103902060030154118015610dda57506003600054610db6919061301c565b600184604051610dc69190612999565b908152602001604051809103902060040154105b15610e1d5760018084604051610df09190612999565b908152602001604051809103902060020160006101000a81548160ff021916908315150217905550610e58565b6000600184604051610e2f9190612999565b908152602001604051809103902060020160006101000a81548160ff0219169083151502179055505b6001915050919050565b600281805160208101820180518482526020830160208501208183528095505050505050600091509050806000018054610e9b90612a4b565b80601f0160208091040260200160405190810160405280929190818152602001828054610ec790612a4b565b8015610f145780601f10610ee957610100808354040283529160200191610f14565b820191906000526020600020905b815481529060010190602001808311610ef757829003601f168201915b505050505090806001018054610f2990612a4b565b80601f0160208091040260200160405190810160405280929190818152602001828054610f5590612a4b565b8015610fa25780601f10610f7757610100808354040283529160200191610fa2565b820191906000526020600020905b815481529060010190602001808311610f8557829003601f168201915b5050505050908060020160009054906101000a900473ffffffffffffffffffffffffffffffffffffffff16905083565b600033600360008273ffffffffffffffffffffffffffffffffffffffff1673ffffffffffffffffffffffffffffffffffffffff16815260200190815260200160002060040160009054906101000a900460ff16611064576040517f08c379a000000000000000000000000000000000000000000000000000000000815260040161105b9061293d565b60405180910390fd5b600073ffffffffffffffffffffffffffffffffffffffff1660028460405161108c9190612999565b908152602001604051809103902060020160009054906101000a900473ffffffffffffffffffffffffffffffffffffffff1673ffffffffffffffffffffffffffffffffffffffff1603611114576040517f08c379a000000000000000000000000000000000000000000000000000000000815260040161110b906130bf565b60405180910390fd5b6002836040516111249190612999565b90815260200160405180910390206000808201600061114391906121d1565b60018201600061115391906121d1565b6002820160006101000a81549073ffffffffffffffffffffffffffffffffffffffff021916905550506001915050919050565b60005481565b600033600360008273ffffffffffffffffffffffffffffffffffffffff1673ffffffffffffffffffffffffffffffffffffffff16815260200190815260200160002060040160009054906101000a900460ff1661121e576040517f08c379a00000000000000000000000000000000000000000000000000000000081526004016112159061293d565b60405180910390fd5b600073ffffffffffffffffffffffffffffffffffffffff166002846040516112469190612999565b908152602001604051809103902060020160009054906101000a900473ffffffffffffffffffffffffffffffffffffffff1673ffffffffffffffffffffffffffffffffffffffff16036112ce576040517f08c379a00000000000000000000000000000000000000000000000000000000081526004016112c5906130bf565b60405180910390fd5b6002836040516112de9190612999565b9081526020016040518091039020600080820160006112fd91906121d1565b60018201600061130d91906121d1565b6002820160006101000a81549073ffffffffffffffffffffffffffffffffffffffff02191690555050600073ffffffffffffffffffffffffffffffffffffffff1660018460405161135e9190612999565b908152602001604051809103902060050160009054906101000a900473ffffffffffffffffffffffffffffffffffffffff1673ffffffffffffffffffffffffffffffffffffffff16036113e6576040517f08c379a00000000000000000000000000000000000000000000000000000000081526004016113dd906129fc565b60405180910390fd5b60006001846040516113f89190612999565b908152602001604051809103902060030181905550600060018460405161141f9190612999565b9081526020016040518091039020600401819055506001915050919050565b600360205280600052604060002060009150905080600001805461146190612a4b565b80601f016020809104026020016040519081016040528092919081815260200182805461148d90612a4b565b80156114da5780601f106114af576101008083540402835291602001916114da565b820191906000526020600020905b8154815290600101906020018083116114bd57829003601f168201915b5050505050908060010160009054906101000a900473ffffffffffffffffffffffffffffffffffffffff16908060020154908060030154908060040160009054906101000a900460ff169080600501805461153490612a4b565b80601f016020809104026020016040519081016040528092919081815260200182805461156090612a4b565b80156115ad5780601f10611582576101008083540402835291602001916115ad565b820191906000526020600020905b81548152906001019060200180831161159057829003601f168201915b5050505050905086565b600033600360008273ffffffffffffffffffffffffffffffffffffffff1673ffffffffffffffffffffffffffffffffffffffff16815260200190815260200160002060040160009054906101000a900460ff16611649576040517f08c379a00000000000000000000000000000000000000000000000000000000081526004016116409061293d565b60405180910390fd5b600073ffffffffffffffffffffffffffffffffffffffff166001846040516116719190612999565b908152602001604051809103902060050160009054906101000a900473ffffffffffffffffffffffffffffffffffffffff1673ffffffffffffffffffffffffffffffffffffffff16036116f9576040517f08c379a00000000000000000000000000000000000000000000000000000000081526004016116f0906129fc565b60405180910390fd5b6001808460405161170a9190612999565b9081526020016040518091039020600401600082825461172a9190612f97565b925050819055506001836040516117419190612999565b9081526020016040518091039020600401546001846040516117639190612999565b9081526020016040518091039020600301541180156117b05750600360005461178c919061301c565b60018460405161179c9190612999565b908152602001604051809103902060040154105b156117f357600180846040516117c69190612999565b908152602001604051809103902060020160006101000a81548160ff02191690831515021790555061182e565b60006001846040516118059190612999565b908152602001604051809103902060020160006101000a81548160ff0219169083151502179055505b6001915050919050565b611840612211565b600073ffffffffffffffffffffffffffffffffffffffff16600360008473ffffffffffffffffffffffffffffffffffffffff1673ffffffffffffffffffffffffffffffffffffffff16815260200190815260200160002060010160009054906101000a900473ffffffffffffffffffffffffffffffffffffffff1673ffffffffffffffffffffffffffffffffffffffff1603611911576040517f08c379a000000000000000000000000000000000000000000000000000000000815260040161190890612f48565b60405180910390fd5b600360008373ffffffffffffffffffffffffffffffffffffffff1673ffffffffffffffffffffffffffffffffffffffff1681526020019081526020016000206040518060c001604052908160008201805461196b90612a4b565b80601f016020809104026020016040519081016040528092919081815260200182805461199790612a4b565b80156119e45780601f106119b9576101008083540402835291602001916119e4565b820191906000526020600020905b8154815290600101906020018083116119c757829003601f168201915b505050505081526020016001820160009054906101000a900473ffffffffffffffffffffffffffffffffffffffff1673ffffffffffffffffffffffffffffffffffffffff1673ffffffffffffffffffffffffffffffffffffffff16815260200160028201548152602001600382015481526020016004820160009054906101000a900460ff16151515158152602001600582018054611a8290612a4b565b80601f0160208091040260200160405190810160405280929190818152602001828054611aae90612a4b565b8015611afb5780601f10611ad057610100808354040283529160200191611afb565b820191906000526020600020905b815481529060010190602001808311611ade57829003601f168201915b5050505050815250509050919050565b600181805160208101820180518482526020830160208501208183528095505050505050600091509050806000018054611b4490612a4b565b80601f0160208091040260200160405190810160405280929190818152602001828054611b7090612a4b565b8015611bbd5780601f10611b9257610100808354040283529160200191611bbd565b820191906000526020600020905b815481529060010190602001808311611ba057829003601f168201915b505050505090806001018054611bd290612a4b565b80601f0160208091040260200160405190810160405280929190818152602001828054611bfe90612a4b565b8015611c4b5780601f10611c2057610100808354040283529160200191611c4b565b820191906000526020600020905b815481529060010190602001808311611c2e57829003601f168201915b5050505050908060020160009054906101000a900460ff16908060030154908060040154908060050160009054906101000a900473ffffffffffffffffffffffffffffffffffffffff16905086565b600033600360008273ffffffffffffffffffffffffffffffffffffffff1673ffffffffffffffffffffffffffffffffffffffff16815260200190815260200160002060040160009054906101000a900460ff16611d2c576040517f08c379a0000000000000000000000000000000000000000000000000000000008152600401611d239061293d565b60405180910390fd5b600073ffffffffffffffffffffffffffffffffffffffff16600360008673ffffffffffffffffffffffffffffffffffffffff1673ffffffffffffffffffffffffffffffffffffffff16815260200190815260200160002060010160009054906101000a900473ffffffffffffffffffffffffffffffffffffffff1673ffffffffffffffffffffffffffffffffffffffff1603611dfd576040517f08c379a0000000000000000000000000000000000000000000000000000000008152600401611df490612f48565b60405180910390fd5b6001600360008673ffffffffffffffffffffffffffffffffffffffff1673ffffffffffffffffffffffffffffffffffffffff1681526020019081526020016000206002016000828254611e509190612f97565b925050819055506003600054611e66919061301c565b600360008673ffffffffffffffffffffffffffffffffffffffff1673ffffffffffffffffffffffffffffffffffffffff168152602001908152602001600020600201541115611f0b576000600360008673ffffffffffffffffffffffffffffffffffffffff1673ffffffffffffffffffffffffffffffffffffffff16815260200190815260200160002060040160006101000a81548160ff0219169083151502179055505b600191505092915050565b600033600360008273ffffffffffffffffffffffffffffffffffffffff1673ffffffffffffffffffffffffffffffffffffffff16815260200190815260200160002060040160009054906101000a900460ff16611fa8576040517f08c379a0000000000000000000000000000000000000000000000000000000008152600401611f9f9061293d565b60405180910390fd5b600073ffffffffffffffffffffffffffffffffffffffff16600285604051611fd09190612999565b908152602001604051809103902060020160009054906101000a900473ffffffffffffffffffffffffffffffffffffffff1673ffffffffffffffffffffffffffffffffffffffff1614612058576040517f08c379a000000000000000000000000000000000000000000000000000000000815260040161204f90613151565b60405180910390fd5b600073ffffffffffffffffffffffffffffffffffffffff166001856040516120809190612999565b908152602001604051809103902060050160009054906101000a900473ffffffffffffffffffffffffffffffffffffffff1673ffffffffffffffffffffffffffffffffffffffff1614612108576040517f08c379a00000000000000000000000000000000000000000000000000000000081526004016120ff90612aee565b60405180910390fd5b836002856040516121199190612999565b908152602001604051809103902060000190816121369190612e2a565b50826002856040516121489190612999565b908152602001604051809103902060010190816121659190612e2a565b50336002856040516121779190612999565b908152602001604051809103902060020160006101000a81548173ffffffffffffffffffffffffffffffffffffffff021916908373ffffffffffffffffffffffffffffffffffffffff160217905550600191505092915050565b5080546121dd90612a4b565b6000825580601f106121ef575061220e565b601f01602090049060005260206000209081019061220d919061225f565b5b50565b6040518060c0016040528060608152602001600073ffffffffffffffffffffffffffffffffffffffff1681526020016000815260200160008152602001600015158152602001606081525090565b5b80821115612278576000816000905550600101612260565b5090565b6000604051905090565b600080fd5b600080fd5b600080fd5b600080fd5b6000601f19601f8301169050919050565b7f4e487b7100000000000000000000000000000000000000000000000000000000600052604160045260246000fd5b6122e38261229a565b810181811067ffffffffffffffff82111715612302576123016122ab565b5b80604052505050565b600061231561227c565b905061232182826122da565b919050565b600067ffffffffffffffff821115612341576123406122ab565b5b61234a8261229a565b9050602081019050919050565b82818337600083830152505050565b600061237961237484612326565b61230b565b90508281526020810184848401111561239557612394612295565b5b6123a0848285612357565b509392505050565b600082601f8301126123bd576123bc612290565b5b81356123cd848260208601612366565b91505092915050565b6000602082840312156123ec576123eb612286565b5b600082013567ffffffffffffffff81111561240a5761240961228b565b5b612416848285016123a8565b91505092915050565b600081519050919050565b600082825260208201905092915050565b60005b8381101561245957808201518184015260208101905061243e565b83811115612468576000848401525b50505050565b60006124798261241f565b612483818561242a565b935061249381856020860161243b565b61249c8161229a565b840191505092915050565b60008115159050919050565b6124bc816124a7565b82525050565b6000819050919050565b6124d5816124c2565b82525050565b600073ffffffffffffffffffffffffffffffffffffffff82169050919050565b6000612506826124db565b9050919050565b612516816124fb565b82525050565b600060c0820190508181036000830152612536818961246e565b9050818103602083015261254a818861246e565b905061255960408301876124b3565b61256660608301866124cc565b61257360808301856124cc565b61258060a083018461250d565b979650505050505050565b600080604083850312156125a2576125a1612286565b5b600083013567ffffffffffffffff8111156125c0576125bf61228b565b5b6125cc858286016123a8565b925050602083013567ffffffffffffffff8111156125ed576125ec61228b565b5b6125f9858286016123a8565b9150509250929050565b600060208201905061261860008301846124b3565b92915050565b612627816124fb565b811461263257600080fd5b50565b6000813590506126448161261e565b92915050565b6000602082840312156126605761265f612286565b5b600061266e84828501612635565b91505092915050565b600060208201905061268c60008301846124cc565b92915050565b600060608201905081810360008301526126ac818661246e565b905081810360208301526126c0818561246e565b90506126cf604083018461250d565b949350505050565b600060c08201905081810360008301526126f1818961246e565b9050612700602083018861250d565b61270d60408301876124cc565b61271a60608301866124cc565b61272760808301856124b3565b81810360a0830152612739818461246e565b9050979650505050505050565b600082825260208201905092915050565b60006127628261241f565b61276c8185612746565b935061277c81856020860161243b565b6127858161229a565b840191505092915050565b612799816124fb565b82525050565b6127a8816124c2565b82525050565b6127b7816124a7565b82525050565b600060c08301600083015184820360008601526127da8282612757565b91505060208301516127ef6020860182612790565b506040830151612802604086018261279f565b506060830151612815606086018261279f565b50608083015161282860808601826127ae565b5060a083015184820360a08601526128408282612757565b9150508091505092915050565b6000602082019050818103600083015261286781846127bd565b905092915050565b6000806040838503121561288657612885612286565b5b600061289485828601612635565b925050602083013567ffffffffffffffff8111156128b5576128b461228b565b5b6128c1858286016123a8565b9150509250929050565b7f42616e6b206973206e6f7420616c6c6f77656420666f7220657865637574696e60008201527f672074686973206675636e74696f6e0000000000000000000000000000000000602082015250565b6000612927602f8361242a565b9150612932826128cb565b604082019050919050565b600060208201905081810360008301526129568161291a565b9050919050565b600081905092915050565b60006129738261241f565b61297d818561295d565b935061298d81856020860161243b565b80840191505092915050565b60006129a58284612968565b915081905092915050565b7f437573746f6d657220646f65736e277420657869737400000000000000000000600082015250565b60006129e660168361242a565b91506129f1826129b0565b602082019050919050565b60006020820190508181036000830152612a15816129d9565b9050919050565b7f4e487b7100000000000000000000000000000000000000000000000000000000600052602260045260246000fd5b60006002820490506001821680612a6357607f821691505b602082108103612a7657612a75612a1c565b5b50919050565b7f437573746f6d657220697320616c72656164792070726573656e7420696e207460008201527f6865206461746162617365000000000000000000000000000000000000000000602082015250565b6000612ad8602b8361242a565b9150612ae382612a7c565b604082019050919050565b60006020820190508181036000830152612b0781612acb565b9050919050565b7f4b5943207265717565737420746f20626520616464656420666972737420626560008201527f666f726520616464696e672074686520637573746f6d657220746f206461746160208201527f6261736500000000000000000000000000000000000000000000000000000000604082015250565b6000612b9060448361242a565b9150612b9b82612b0e565b606082019050919050565b60006020820190508181036000830152612bbf81612b83565b9050919050565b7f4f6e6c79207468652062616e6b2077686f20696e69746961746564207468652060008201527f4b594320726571756573742063616e20616464207468697320637573746f6d6560208201527f7220746f20746865206461746162617365000000000000000000000000000000604082015250565b6000612c4860518361242a565b9150612c5382612bc6565b606082019050919050565b60006020820190508181036000830152612c7781612c3b565b9050919050565b60008190508160005260206000209050919050565b60006020601f8301049050919050565b600082821b905092915050565b600060088302612ce07fffffffffffffffffffffffffffffffffffffffffffffffffffffffffffffffff82612ca3565b612cea8683612ca3565b95508019841693508086168417925050509392505050565b6000819050919050565b6000612d27612d22612d1d846124c2565b612d02565b6124c2565b9050919050565b6000819050919050565b612d4183612d0c565b612d55612d4d82612d2e565b848454612cb0565b825550505050565b600090565b612d6a612d5d565b612d75818484612d38565b505050565b5b81811015612d9957612d8e600082612d62565b600181019050612d7b565b5050565b601f821115612dde57612daf81612c7e565b612db884612c93565b81016020851015612dc7578190505b612ddb612dd385612c93565b830182612d7a565b50505b505050565b600082821c905092915050565b6000612e0160001984600802612de3565b1980831691505092915050565b6000612e1a8383612df0565b9150826002028217905092915050565b612e338261241f565b67ffffffffffffffff811115612e4c57612e4b6122ab565b5b612e568254612a4b565b612e61828285612d9d565b600060209050601f831160018114612e945760008415612e82578287015190505b612e8c8582612e0e565b865550612ef4565b601f198416612ea286612c7e565b60005b82811015612eca57848901518255600182019150602085019450602081019050612ea5565b86831015612ee75784890151612ee3601f891682612df0565b8355505b6001600288020188555050505b505050505050565b7f4e6f20737563682062616e6b2065786973747300000000000000000000000000600082015250565b6000612f3260138361242a565b9150612f3d82612efc565b602082019050919050565b60006020820190508181036000830152612f6181612f25565b9050919050565b7f4e487b7100000000000000000000000000000000000000000000000000000000600052601160045260246000fd5b6000612fa2826124c2565b9150612fad836124c2565b9250827fffffffffffffffffffffffffffffffffffffffffffffffffffffffffffffffff03821115612fe257612fe1612f68565b5b828201905092915050565b7f4e487b7100000000000000000000000000000000000000000000000000000000600052601260045260246000fd5b6000613027826124c2565b9150613032836124c2565b92508261304257613041612fed565b5b828204905092915050565b7f5468657265206973206e6f2073756368207265717565737420746f2072656d6f60008201527f7665000000000000000000000000000000000000000000000000000000000000602082015250565b60006130a960228361242a565b91506130b48261304d565b604082019050919050565b600060208201905081810360008301526130d88161309c565b9050919050565b7f4b594320726571756573742068617320616c7265616479206265656e2061646460008201527f656420666f72207468697320637573746f6d6572000000000000000000000000602082015250565b600061313b60348361242a565b9150613146826130df565b604082019050919050565b6000602082019050818103600083015261316a8161312e565b905091905056fea2646970667358221220007071cae6e26b0ce4186674148532e523e78feeb33731bb3eeb64494de2e37564736f6c634300080f0033",
  "immutableReferences": {},
  "source": "//SPDX-License-Identifier: UNLICENSED\r\npragma solidity ^0.8.7;\r\n\r\ncontract BankApp {\r\n    struct Customer {\r\n        string username;   //entered by customer\r\n        string customerData;   //hash of the link for the customer data\r\n        bool kycStatus; //status of KYC request of a customer\r\n        uint upvotes;   //number of upvotes received from other banks over customer data\r\n        uint downvotes;  //number of downvotes received from other banks over customer data\r\n        address bank;   //unique address of the bank that validated the customer account\r\n    }\r\n    struct KYCRequest {\r\n        string username;   //entered by customer\r\n        string customerData;   //hash of the link for the customer data\r\n        address bank;   //unique address of the bank that initiated a KYC request\r\n    }\r\n    struct Bank {\r\n        string name;   //name of the bank/ organization\r\n        address ethAddress;  //unique ethereum address of the bank/ organization\r\n        uint complaintsReported; //number of complaints against this bank\r\n        uint KYC_count;  //number of KYC requests initiated by the bank/ organization\r\n        bool isAllowedToVote;   //if set to false, bank can not use functions for a bank\r\n        string regNumber;  //unique registration number of the bank\r\n    }\r\n    uint public numOfBanks; //to keep track of total banks\r\n    mapping(string => Customer) public customers;  //to maintain a list of customers (keys: username)\r\n    mapping(string => KYCRequest) public requests; //to maintain a list of KYC requests (keys: username)\r\n    mapping(address => Bank) public banks;  //to maintain a list of banks (keys: unique address for bank)\r\n    \r\n    //Only those banks are allowed to execute bank functionalities for which isAllowedToVote is true\r\n    modifier onlyAllowedBank(address bank) {\r\n        require(banks[bank].isAllowedToVote, \"Bank is not allowed for executing this fucntion\");\r\n        _;\r\n    }\r\n\r\n    //to add new kyc request by a bank\r\n    function addRequest(string memory _username, string memory _customerData) public onlyAllowedBank(msg.sender) returns (bool success){\r\n        require(requests[_username].bank == address(0), \"KYC request has already been added for this customer\");\r\n        require(customers[_username].bank == address(0), \"Customer is already present in the database\");\r\n        //add to requests only if customer was not already added\r\n        requests[_username].username = _username;\r\n        requests[_username].customerData = _customerData;\r\n        requests[_username].bank = msg.sender;\r\n        success = true;\r\n    }\r\n    //to add customer to customers' list by a bank\r\n    /*assumption - only the bank which has initiated the kyc request, \r\n    will verify it off-chain and then add customer the database i.e. in the customers mapping*/\r\n    function addCustomer(string memory _username, string memory _customerData) public onlyAllowedBank(msg.sender) returns(bool success){\r\n        //customer should not be present in the database already\r\n        require(customers[_username].bank == address(0), \"Customer is already present in the database\");\r\n        //customer must be present in the requests mapping, where all kyc requests are stored\r\n        require(requests[_username].bank != address(0), \"KYC request to be added first before adding the customer to database\");\r\n        /*assumption - only the bank which has initiated the kyc request, \r\n        will verify it off-chain and then add customer the database i.e. in the customers mapping*/\r\n        require(requests[_username].bank == msg.sender, \"Only the bank who initiated the KYC request can add this customer to the database\");\r\n        //add to customers mapping, if all above checks are passed and bank has verified the kyc data of customer off-chain\r\n        customers[_username].username = _username;\r\n        customers[_username].customerData = _customerData;\r\n        customers[_username].bank = msg.sender;\r\n        customers[_username].upvotes = 1;\r\n        customers[_username].kycStatus = true;\r\n        success = true;\r\n    }\r\n    //to remove a kyc request by a bank\r\n    function removeRequest(string memory _username) public onlyAllowedBank(msg.sender) returns(bool success) {\r\n        require(requests[_username].bank != address(0), \"There is no such request to remove\");\r\n        //remove only if request exist in the requests mapping\r\n        delete requests[_username];\r\n        success = true;\r\n    }\r\n    //to view complete data of customer by a bank\r\n    function viewCustomer(string memory _username) public view onlyAllowedBank(msg.sender)\r\n    returns(string memory, string memory, bool, uint, uint, address) {\r\n        require(customers[_username].bank != address(0), \"Customer doesn't exist\");\r\n        //return customer's data only if customer exist\r\n        return (customers[_username].username, customers[_username].customerData,\r\n        customers[_username].kycStatus, customers[_username].upvotes, \r\n        customers[_username].downvotes, customers[_username].bank);\r\n    }\r\n    //to upvote a customer by a bank\r\n    function upvote(string memory _username) public onlyAllowedBank(msg.sender) returns(bool success){\r\n        require(customers[_username].bank != address(0), \"Customer doesn't exist\");\r\n        //upvote by bank only if customer is present\r\n        customers[_username].upvotes += 1;\r\n        //also, check the total upvotes and downvotes and modify the kyc status accordingly\r\n        //Here, we are assuming that there are at least 5 banks in the network\r\n        if(customers[_username].upvotes > customers[_username].downvotes && customers[_username].downvotes < numOfBanks/3){\r\n            customers[_username].kycStatus = true;\r\n        }else{\r\n            customers[_username].kycStatus = false;\r\n        }\r\n        success = true;\r\n    }\r\n    //to downvote a customer by a bank\r\n    function downvote(string memory _username) public onlyAllowedBank(msg.sender) returns(bool success){\r\n        require(customers[_username].bank != address(0), \"Customer doesn't exist\");\r\n        //downvote by bank only if customer is present\r\n        customers[_username].downvotes += 1;\r\n        //also, check the total upvotes and downvotes and modify the kyc status accordingly\r\n        //Here, we are assuming that there are at least 5 banks in the network\r\n        if(customers[_username].upvotes > customers[_username].downvotes && customers[_username].downvotes < numOfBanks/3){\r\n            customers[_username].kycStatus = true;\r\n        }else{\r\n            customers[_username].kycStatus = false;\r\n        }\r\n        success = true;\r\n    }\r\n    //to modify customer's data by a bank\r\n    function modifyCustomer(string memory _username) public onlyAllowedBank(msg.sender) returns(bool success){\r\n        /*this function need to perform two operations\r\n        1. to remove the customer from requests list if it exists in requests list.\r\n        2. to set the number of upvotes and downvotes to zero if customer exists in customers list\r\n        */\r\n        require(requests[_username].bank != address(0), \"There is no such request to remove\");\r\n        delete requests[_username];\r\n        require(customers[_username].bank != address(0), \"Customer doesn't exist\");\r\n        customers[_username].upvotes = 0;\r\n        customers[_username].downvotes = 0;\r\n        success = true;\r\n    }\r\n    //to get the number of complaints against any bank (assuming that admin as well as any bank can call this function)\r\n    function getBankComplaints(address _ethAddress) public view returns(uint){\r\n        require(banks[_ethAddress].ethAddress != address(0), \"No such bank exists\");\r\n        //get the number of complaint for a bank only if it exists\r\n        return banks[_ethAddress].complaintsReported;\r\n    }\r\n    //to view the details of any bank (assuming that admin as well as any bank can call this function)\r\n    function viewBankDetails(address _ethAddress) public view returns(Bank memory){\r\n        require(banks[_ethAddress].ethAddress != address(0), \"No such bank exists\");\r\n        //get the bank details only if it exists\r\n        return banks[_ethAddress];\r\n    }\r\n    //to report a complaint against any bank by other banks\r\n    function reportBank(address _ethAddress, string memory _name) public onlyAllowedBank(msg.sender) returns(bool success){\r\n        require(banks[_ethAddress].ethAddress != address(0), \"No such bank exists\");\r\n        /*If such bank exists, then this fucntion need to perform two things\r\n        1. Increment the complaintsReported by 1\r\n        2. Modify isAllowedToVote as per conditions mentioned in problem statement\r\n        */\r\n        banks[_ethAddress].complaintsReported += 1;\r\n        if(banks[_ethAddress].complaintsReported > numOfBanks/3){\r\n            banks[_ethAddress].isAllowedToVote = false;\r\n        }\r\n        success =  true;\r\n    }\r\n}",
  "sourcePath": "D:\\personal\\blockchain-program\\KYC-Case-Study\\Phase-3\\KYC-SC\\contracts\\BankInterface.sol",
  "compiler": {
    "name": "solc",
    "version": "0.8.15+commit.e14f2714.Emscripten.clang"
  },
  "schemaVersion": "3.4.7",
  "updatedAt": "2022-07-12T17:15:28.604Z",
  "devdoc": {
    "kind": "dev",
    "methods": {},
    "version": 1
  },
  "userdoc": {
    "kind": "user",
    "methods": {},
    "version": 1
  }
}